:10000000F8FF0020110400004B3600004B360000C2
:100010004B3600004B3600004B3600004B360000DC
:100020004B3600004B3600004B3600004B360000CC
:100030004B3600004B3600004B3600004B360000BC
:100040004B3600004B3600004B3600004B360000AC
:10005000193C00004B3600004B3600004B360000C8
:100060004B3600004B3600004B3600004B3600008C
:100070004B3600004B3600004B3600004B3600007C
:100080004B3600004B3600004B3600004B3600006C
:100090004B3600004B3600004B3600004B3600005C
:1000A0004B3600004B3600004B3600004B3600004C
:1000B0004B3600004B3600004B3600004B3600003C
:1000C0004B3600004B3600004B3600004B3600002C
:1000D0004B3600004B3600004B3600004B3600001C
:1000E0004B3600004B3600004B3600004B3600000C
:1000F0004B3600004B3600004B3600004B360000FC
:100100004B3600004B3600004B3600004B360000EB
:100110004B3600004B3600004B3600004B360000DB
:100120004B3600004B3600004B3600004B360000CB
:100130004B3600004B3600004B3600004B360000BB
:100140004B3600004B3600004B3600004B360000AB
:100150003D3B00004B3600004B3600004B360000A4
:100160004B3600004B3600004B3600004B3600008B
:100170004B3600004B3600004B3600004B3600007B
:100180004B3600004B3600004B3600004B3600006B
:100190004B3600004B3600004B360000413C00005F
:1001A0007F3C00004B3600004B3600004B36000011
:1001B0004B3600004B3600004B3600004B3600003B
:1001C0004B3600004B3600004B3600004B3600002B
:1001D0004B3600004B3600004B3600004B3600001B
:1001E0004B3600004B3600004B3600004B3600000B
:10040000FFFFFFFFFFFFFFFFFFFFFFFFFEFFFFFFFD
:1004100062B64FF000004FF000014FF000024FF0C5
:1004200000034FF000044FF000054FF000064FF0BE
:1004300000074FF000084FF000094FF0000A4FF09E
:10044000000B4FF0000C06F065F8FEE72DE9FF4FBA
:10045000ADF2444D0120039010A84FF4806102F0EA
:10046000F7FFC82002903C200190DDF87804401C82
:100470008246DDF87804DDF880140818401E8245B5
:1004800031DADDF84C04DDF8501400FB0A10DDF819
:1004900044144018401C0600DDF85004401C0700BE
:1004A000DDF85004DDF87C140818401E874217DA86
:1004B000307810A951F82000401C317810AA42F879
:1004C000210001983178884201DA30780190307843
:1004D0000299884201DA30780290761C7F1CDFE7AF
:1004E0001AF1010AC5E700200021CDE90401CDE998
:1004F00006010020834600208046B8F1FF0F1DDC76
:10050000404602F0B9FF04000D0010A850F8280082
:1005100002F0B2FF22002B0002F0C6FF02000B0027
:10052000DDE9060103F092F8CDE9060110A850F8C4
:10053000280010EB0B0B18F10108DEE7BBF1000FF0
:1005400001D1A02084E00020DFF83819CDE90A01AC
:100550000020814600208046B8F1FF0F77DA10A80E
:1005600050F8280010EB0909B9F1000F6CD0BBEB73
:10057000090000900098002869D0404602F07CFFF6
:1005800004000D0010A850F8280002F075FF2200AA
:100590002B0002F089FF02000B00DDE9040103F0EB
:1005A00055F8CDE90401484602F066FF02000B0051
:1005B000DDE9040103F0BEF8CDE90E01DDE9060135
:1005C000DDE9042303F0DAF904000D00009802F0DD
:1005D00053FF02000B002000290003F0ABF8CDE927
:1005E0000C01484602F048FF04000D00009802F09C
:1005F00043FF22002B0002F057FF04000D00DDE94D
:100600000E01DDE90C2303F0B9F922002B0002F002
:100610004BFF04000D00DDE90E01DDE90C2303F0C2
:10062000ADF922002B0002F03FFFCDE90801DDE922
:100630000A01DDE9082303F061FA05D2DDE90801CA
:10064000CDE90A01CDF80C8018F1010884E7039880
:100650000DF2544DBDE8F08F10B400221000332885
:1006600013DA0022110046290DDA4622DFF8183885
:1006700002FB00324623DFF8144803FB0043CB5C47
:100680008B54491CEFE7401CE9E710BC704738B5B4
:1006900000240025DFF8F8070400DFF8F007050064
:1006A000DFF8F007A0420DD3DFF8040D00682178D1
:1006B000884202DAFF20287001E000202870641CC4
:1006C0006D1CEDE7FFF7C8FF31BD10B40123190021
:1006D000322957DA01231A00452A51DA462303FB4F
:1006E0000103D35C0A2B05D3462303FB0103D35C30
:1006F000F12B43D3462303FB0103D31813F8473CE4
:10070000462404FB0104141914F8464C54FA83F3EC
:10071000462404FB0104141914F8454C53FA84F3DD
:10072000462404FB0104141914F8014C53FA84F311
:10073000462404FB01041419647853FA84F3462414
:1007400004FB0104141994F8454053FA84F3462439
:1007500004FB0104141994F8464053FA84F3462428
:1007600004FB0104141994F8474053FA84F3082455
:1007700093FBF4F3462404FB01041355521CABE72E
:10078000491CA5E710BC704730B40023180033287B
:1007900018DA1423190000231A00B1F5947F0FDC36
:1007A0004623DFF8EC4603FB00434FF4A074DFF868
:1007B000105D04FB00540C5DD454091D521CECE781
:1007C000401CE4E730BC704730B400200021002218
:1007D0000023DFF8E04B00252570DFF8DC4B002517
:1007E0002570DFF8D84B0025257032242300002B1C
:1007F0007DD44624DFF8945604FB035494F8234038
:10080000FF2C0AD1C9B2002907D1DFF8AC4B2478FC
:10081000641CDFF8A45B2C7015E0022B13DB46246C
:10082000DFF8685604FB035414F8234C002C0AD15B
:100830004624DFF8585604FB035414F8694CFF2C87
:1008400001D1012421004624DFF8405604FB035463
:10085000647C0443E4B2002C07D1DFF8584B2478C1
:10086000641CDFF8505B2C7015E0022B13DB462470
:10087000DFF8185604FB035414F8354C002C0AD149
:100880004624DFF8085604FB035414F87B4C002C74
:1008900001D1012420004624DFF8F05504FB035465
:1008A00094F83440FF2C0AD1D2B2002A07D1DFF8E5
:1008B0000C4B2478641CDFF8045B2C7015E0022BD1
:1008C00013DB4624DFF8C45504FB035414F8124C20
:1008D000002C0AD14624DFF8B45504FB035414F865
:1008E000584C002C01D1012422005B1E7FE7DFF869
:1008F000C44A24781734DFF8BC5A2C70DFF8B84AA1
:100900002478DFF8B05A2D78AC4203D2DFF8A44A3D
:10091000247802E0DFF8A04A2478DFF8285C2C7005
:10092000DFF8984A2478DFF81C5C2D78AC4203D2BB
:10093000DFF8104C247802E0DFF8804A2478DFF8F2
:10094000045C2C70DFF86C4A2478DFF86C5A2D7840
:100950002C19DFF8685A2D782C19DFF8885D2C7077
:1009600030BC7047F0B40020002100220023002496
:100970004525DFF8546C00273770DFF8506C0027EE
:100980003770DFF84C6C00273770002630003328B2
:1009900080F2FB800026340045263500DFF8346CF9
:1009A00046F82040DFF8306C46F820500026320030
:1009B0000026330000263100242980F2E480DFF88D
:1009C000146C56F82060002E48D14626DFF8BC741F
:1009D00006FB0076A65D002E01D1521C00E05B1CD8
:1009E0004626DFF8A87406FB0076A65D4627DFF8EA
:1009F0009CC407FB00C7E719FF78BE422DD04626EE
:100A0000DFF8887406FB0076A61976784627DFF8AB
:100A10007CC407FB00C7E7193F79BE421BD04626BE
:100A2000DFF8687406FB0076A619B6784627DFF86B
:100A30005CC407FB00C7E7197F79BE420BD0DFF823
:100A4000946BA71C46F82070DFF88C6B56F820607A
:100A5000452E03D097E0641C00E0641CDFF8786B3F
:100A600056F82060452E4DD14626DFF8207406FB4F
:100A70000076AE5D002E01D1521C00E05B1C4626C4
:100A8000DFF8087406FB0076AE5D4627DFF8FCC38E
:100A900007FB00C7EF1917F8037CBE4231D046268A
:100AA000DFF8E87306FB0076AE1916F8016C4627EE
:100AB000DFF8D8C307FB00C7EF1917F8047CBE4264
:100AC0001DD04626DFF8C47306FB0076AE1916F873
:100AD000026C4627DFF8B4C307FB00C7EF1917F80D
:100AE000057CBE420BD0DFF8F06AAF1E46F82070DE
:100AF000DFF8E06A56F82060002E03D043E06D1E58
:100B000000E06D1EAC423CDBDFF8CC6A46F82040CA
:100B1000DFF8C06A46F82040412A0DDB002632008B
:100B2000DFF8C46B01278755DFF89C6A3678761C9E
:100B3000DFF8947A3E7023E0412B1DDB0026330062
:100B4000DFF88C6A3678761CDFF8847A3E702E28BF
:100B50000DDA24280BDBDFF8746A3678761CDFF8B0
:100B60006C7A3E70DFF8806B0227875508E0DFF86B
:100B7000786B0027875503E0DFF86C6B00278755FB
:100B800001E0491C18E7401C01E7F0BC70472DE963
:100B9000F04700250026002408275FF0050ADFF84B
:100BA000680D00210160DFF8440B00210160DFF8CF
:100BB000400B0021016000200500EDB2332D06D26C
:100BC000EDB2DFF8300B002129546D1CF5E7002051
:100BD0000500EDB2332D57D2EDB2DFF8FC0950F825
:100BE0002500EDB2DFF8EC1951F82510401A02F09B
:100BF0009DFF05280ADAEDB2DFF8FC0AEDB2DFF856
:100C0000D41951F8251040F8251018E0EDB2DFF89E
:100C1000C40950F82500EDB2DFF8BC1951F82510D1
:100C2000EDB2DFF8B02952F82520891A022291FB93
:100C3000F2F10818EDB2DFF8C01A41F82500EDB264
:100C4000012D1FD3EDB2DFF8B00A50F82500EDB248
:100C5000DFF8A41A11EB850151F8041C401AEDB21B
:100C6000DFF8981A6854EDB2DFF8900A285602F0BF
:100C70005DFF5FFA8AFA824504DAE4B2DFF8740AAB
:100C80002554641C6D1CA4E7E4B2002C2FD1002075
:100C90000500EDB2332D80F0C480DFF8500A006803
:100CA000401CDFF8481A0860EDB21F2D1DD3EDB2CD
:100CB000332D1AD2DFF8380A0068401CDFF8301AEA
:100CC0000860DFF8440C0068EDB2DFF82C1A11EB75
:100CD000850151F8041C0818EDB2DFF81C1A51F810
:100CE0002510401ADFF8201C08606D1CD1E7380081
:100CF000C0B2DFF8001A91F9001000B209B28842C0
:100D000032DA002005002800C0B2DFF8E81991F9B6
:100D1000001000B209B2884226DADFF8D009006874
:100D2000401CDFF8C8190860EDB21F2D1AD3DFF898
:100D3000C0090068401CDFF8B8190860DFF8C80B6C
:100D40000068EDB2DFF8B01911EB850151F8041C11
:100D50000818EDB2DFF8A01951F82510401ADFF895
:100D6000A81B08606D1CCEE7E4B2DFF888093321C8
:100D7000215400200600F6B2E4B2A64251D2FFB2DE
:100D8000F6B2DFF87009301890F90100F6B2DFF81A
:100D900064197156401A874241DAF6B2DFF85409F5
:100DA000305C05002800C0B2F6B2DFF848197118AF
:100DB00091F9011000B209B2884230DADFF82C094B
:100DC0000068401CDFF824190860F6B2DFF8240937
:100DD00030562900C9B200B209B288421DDAEDB21C
:100DE0001F2D1AD3DFF808090068401CDFF800192E
:100DF0000860DFF8140B0068EDB2DFF8FC1811EBA7
:100E0000850151F8041C0818EDB2DFF8EC1851F810
:100E10002510401ADFF8F01A08606D1CC2E7761C36
:100E2000A9E7DFF8CC080068022820DBDFF8D80A41
:100E3000006802F07BFE02F01FFB02000B000020A6
:100E4000DFF86C1B02F030FB80468946DFF8A00813
:100E5000006802F011FB02000B004046494602F018
:100E600069FC02F089FFDFF84C1B086008E0DFF83E
:100E7000440BDFF8441B0160DFF88C0A322101606B
:100E8000BDE8F0870000F0BF5454FF1FA065FF1FAE
:100E90006046FF1F5154FF1F2DE9F04F87B000241B
:100EA0005FF00009002005900020049023275FF0E8
:100EB00023080025002606208DF80C000020029053
:100EC00000200190002000905FF0000B5FF0000A0E
:100ED000DFF8200C00210160DFF81C0C002101600C
:100EE000DFF8180C00210160DFF8140C002101600C
:100EF000DFF8140C00210160DFF8080C002101600C
:100F000032200400002C00F14F820098002840F0AD
:100F10004B822E2C0CDADFF8E00710EB84004068DF
:100F20000700DFF8D40710EB84004068804627E014
:100F3000DFF88004007805280CD2DFF87C04007804
:100F4000DFF878140978884204D23420070034206E
:100F5000804615E0DFF86404007805280CD2DFF83D
:100F600058040078DFF84C140978884204D2112024
:100F700007001120804603E023200700232080463D
:100F800000200600050000208146B9F1460F5ADA1C
:100F9000002D27D1012F25DB0298002822D14620E1
:100FA000DFF8681B00FB0410385CFF2819D14620CD
:100FB000DFF8581B00FB0410381810F8010C00284B
:100FC0000FD1DFF81006791E40F82410DFF8040670
:100FD00050F82400012801DB01200500002E01D07B
:100FE00031E07F1E002E2BD1B8F1450F28DA019891
:100FF000002825D14620DFF8141B00FB041018F848
:101000000000FF281AD14620DFF8001B00FB041067
:1010100018EB00004078002810D1DFF8BC0518F16B
:10102000010140F82410DFF8B00550F824004528ED
:1010300001DA01200600002D02D004E018F10108B9
:1010400019F10109A1E72D2C13DA56EA0500002851
:101050000FD1DFF8BC0A002121541AF1010ADFF890
:10106000940A0068504506DADFF8880AC0F800A044
:1010700001E000208246002D0DD0002E0BD0DFF8BD
:10108000880A0068401CDFF8801A0860DFF8800AD0
:101090000321215412E0002D0AD0DFF8680A00680D
:1010A000401CDFF8601A0860DFF8640A012121544F
:1010B000002E03D0DFF8580A02212154002D1DD143
:1010C0001E2C15DADFF80C0510EB84004068DFF801
:1010D000041511EB840149680818DFF8F81411EBC6
:1010E00084018968401ADFF8EC1441F824002CE0F0
:1010F000DFF8E004002140F8241026E01E2C24DA5A
:10110000DFF8D00450F82400DFF8C81411EB840194
:101110004968401A02F00AFD9DF80C10814214DA69
:10112000DFF8B00410EB84004068DFF8A81411EB7E
:10113000840149680818DFF89C1411EB8401896860
:10114000401ADFF8901441F82400002E1DD11E2C07
:1011500015DADFF8840410EB84004068DFF87814B7
:1011600011EB840149680818DFF86C1411EB840155
:101170008968401ADFF8601441F824002CE0DFF899
:101180005804452140F8241026E01E2C24DADFF80C
:10119000480450F82400DFF8401411EB840149683A
:1011A000401A02F0C3FC9DF80C10814214DADFF8FB
:1011B000280410EB84004068DFF81C1411EB840154
:1011C00049680818DFF8101411EB84018968401A87
:1011D000DFF8041441F82400DFF8FC0350F8240081
:1011E000DFF8F01351F82410884217DADFF8E4032F
:1011F00050F82400DFF8E01351F8241008180221F9
:1012000090FBF1F005900490DFF8C803059940F8D1
:101210002410DFF8C403049940F824100298002831
:1012200006D1DFF8D8080068401CDFF8D018086045
:101230000198002806D1DFF8C8080068401CDFF8D4
:10124000C01808600298002818D00198002815D10D
:10125000DFF8A40410EB84004068DFF87C1311EB86
:10126000840149680818DFF8701311EB840189685C
:10127000401ADFF8841441F8240034E00298002872
:1012800016D10198002813D0DFF86C0410EB84000D
:101290004068D04911EB840149680818CD4911EB29
:1012A00084018968401ADFF8501441F824001AE0DC
:1012B0000298002805D00198002802D00120009053
:1012C00072E0C44850F82400C34951F82410C14AC0
:1012D00052F82420891A022291FBF2F10818DFF853
:1012E000181441F82400DFF8100450F824000428F2
:1012F00005DBDFF8040450F82400432802DB01205A
:10130000009051E01F2C24DADFF8EC0350F82400A1
:10131000DFF8E41311EB84014968401A02F006FC7F
:101320009DF80C10814214DADFF8CC0310EB840036
:101330004068DFF8C41311EB840149680818DFF82E
:10134000B81311EB84018968401ADFF8AC1341F837
:101350002400DFF8A40350F824004621DFF8AC276E
:1013600001FB0421405C002807D11BF1010BBBF1FC
:10137000020F04DB0120009001E00020834600986A
:10138000002806D1DFF870070068401CDFF86817F6
:101390000860DFF874070068042803DA142C01DA07
:1013A00001200090641EADE507B0BDE8F08F00009D
:1013B0009C06FF1F2675FF1F2775FF1F2875FF1F3F
:1013C00010B400200021DFF830271268DFF82C3736
:1013D0001B689A4203DADFF82017096802E0DFF899
:1013E0001C170968DFF818271268914202DBDFF842
:1013F0001017096832221000D1F13302521D8242C7
:1014000025DA744A52F82020734B53F82030714C7F
:1014100054F820401B1B022493FBF4F39A18B64B9C
:1014200043F82020B44A52F82020462A04DBB24A6E
:10143000452342F8203008E0AF4A52F82020002A25
:1014400003D5AD4A002342F82030401ED4E7DFF830
:10145000A8261268914231DAD1F13302521D1000F0
:10146000DFF894261268D2F13302521D824225DA47
:10147000A14A12EB800252689F4B13EB80035B681A
:101480009A189D4B13EB80039B68D21A9A4B43F832
:101490002020994A52F82020462A04DB964A452308
:1014A00042F8203008E0944A52F82020002A03D560
:1014B000914A002342F82030401ED1E710BC70470B
:1014C000A006FF1F10B400200022002132231800C4
:1014D000DFF828361B68D3F133035B1DC0B28342AB
:1014E00018DA0023190000231A00D2B2052A08D204
:1014F000C0B2D2B2831A374C54F823305918521C58
:10150000F3E7052391FBF3F3C0B2324C44F82030EB
:10151000401EDDE7DFF8E4351B68D3F133039B1D84
:101520002C4C54F82330DFF808472360DFF8CC3523
:101530001B68D3F133039B1DDFF8F846236010BC12
:10154000704700002975FF1F10B400200022002101
:1015500032231800DFF8A8351B68D3F133035B1D75
:10156000C0B2834218DA0023190000231A00D2B255
:10157000052A08D2C0B2D2B2831A174C54F82330CD
:101580005918521CF3E7052391FBF3F3C0B2124C38
:1015900044F82030401EDDE7DFF864351B68D3F1E6
:1015A00033039B1D0C4C54F82330DFF88C4623602A
:1015B000DFF84C351B68D3F133039B1DDFF8B84CC3
:1015C000236010BC704700002375FF1F2475FF1FA8
:1015D0002575FF1F3863FF1F0464FF1F2DE970434B
:1015E00000260025002432200600DFF80C050068E4
:1015F000D0F133000A30F6B2B04218DA002004000D
:1016000000200500EDB2052D08D2F6B2EDB2701B38
:10161000394951F8200004196D1CF3E7052094FBAB
:10162000F0F0F6B2344941F82600761EDDE7324884
:10163000D0F8C800DFF804160860DFF8040632218D
:101640000160DFF8F8050068DFF8E4150968401A62
:1016500002F06CFA01F010FF0022D54B01F024FFDC
:1016600080468946DFF8D8050068DFF8C8150968A4
:10167000401A02F05BFA01F0FFFE02000B00404648
:10168000494602F057F802F077FBDFF8B81508601A
:10169000DFF8A8050068DFF8A0150968401A02F015
:1016A00045FA01F0E9FE0022C14B01F0FDFE804643
:1016B0008946DFF88C050068DFF8BC1B0968401A12
:1016C00002F034FA01F0D8FE02000B004046494611
:1016D00002F030F802F050FBDFF8A01C0860BDE813
:1016E000708300002A75FF1F9862FF1F8462FF1F2E
:1016F0009462FF1FD062FF1FD064FF1F0463FF1FAF
:101700002DE9F84F002400275FF000085FF0000982
:101710000026002501200090DFF8600B0021016009
:101720003120040000200700DFF8CC030068D0F16E
:1017300033000A30A0420DDADFF8440B50F82400E1
:101740008019DFF83C1B11EB84014968461A641EBE
:101750007F1CE9E7300001F08FFE02000B00002043
:10176000934901F0A1FE82468B46380001F084FEC9
:1017700002000B005046594601F0DCFF02F0FCFA73
:1017800005002800002102F03FFB08D25FF0FF3087
:101790000090DFF8EC0B290002F048FB0500280060
:1017A000DFF8E01B02F0AEFB02D80420814613E014
:1017B0002800DFF8D41B02F0A5FB02D803208146E5
:1017C0000AE02800DFF8F41C02F09CFB02D802209B
:1017D000814601E000208146009800FB09F9C648D7
:1017E0000068D0F133000A300400012CC0F2898077
:1017F000DFF88C0A10EB8400406819EB0000DFF87A
:10180000801A41F82400DFF8740A0068401CDFF8F1
:101810006C1A0860DFF8680A50F824004621DFF8E7
:10182000EC2201FB0421405C00280BD0DFF8500AB9
:1018300050F82400022805DBDFF8440A50F82400A1
:10184000452800DB5DE000200600312080460020B6
:10185000070044450EDADFF8280A50F828008019FE
:10186000DFF81C1A11EB88014968461AB8F1010823
:101870007F1CEEE7300001F0FFFD02000B000020AE
:101880004B4901F011FE82468B46380001F0F4FD11
:1018900002000B005046594601F04CFF02F06CFA72
:1018A00005002800002102F0AFFA08D25FF0FF30F7
:1018B0000090DFF8CC0A290002F0B8FA05002800F1
:1018C000DFF8C01A02F01EFB02D80420814613E0A4
:1018D0002800DFF8B41A02F015FB02D80320814675
:1018E0000AE02800DFF8D41B02F00CFB02D802202B
:1018F000814601E000208146009800FB09F9641E42
:1019000073E7BDE8F18F00009062FF1F2DE9F14FF2
:101910008A46934600260027002500249DF80000F3
:10192000060000200700F6B25FFA8AFA564508D290
:10193000F6B2DFF84C0950F826004519761C7F1CDA
:10194000F1E7280001F0A2FD0022194B01F0ACFDE7
:1019500080468946FFB2380001F098FD02000B0076
:101960004046494601F0E6FE80468946584602F068
:10197000DBFA02000B004046494601F0FFFF02F08F
:10198000FBF904002000DFF8381B02F0BBFA02D894
:10199000DFF8300B04002000DFF82C1B02F034FAD3
:1019A00002D2DFF8240B04002000BDE8F28F000013
:1019B0000000F03F4474FF1F000040402DE9F04755
:1019C00000260025002400274B480068D0F1330092
:1019D00010F1050ADFF8F40A002101603120060049
:1019E00000200500F6B2B2451BDAF6B2DFF8900827
:1019F00050F826000419DFF8D40A0068F6B2DFF8C0
:101A0000801851F826100818F6B2DFF8741811EB98
:101A100086014968401ADFF8B41A0860761E6D1C0A
:101A2000E0E7200001F032FD02000B000020DFF8AB
:101A3000A01A01F039FD80468946EDB2280001F078
:101A400025FD02000B004046494601F073FE02F0FE
:101A500093F90700DFF8EC2C00200021C2E9000117
:101A600031200600F6B2B24529DAF6B2DFF81008E6
:101A700050F8260002F080FA0100380002F096FAD1
:101A80008046F6B2DFF8F80750F8260002F074FA44
:101A90000100380002F08AFA414602F0C7F902F06C
:101AA00043FA02000B00DFF89CCCDCE9000101F0F6
:101AB000CDFDDFF8902CC2E90001761ED2E7DFF8F9
:101AC000840CD0E900230020DFF8041A01F0ECFCBC
:101AD00080468946EDB2280001F0D8FC02000B00D8
:101AE0004046494601F026FEDFF8582CC2E90001C5
:101AF000BDE8F0877C74FF1F7062FF1F7C62FF1FD0
:101B00008062FF1F8C62FF1F8862FF1FA065FF1F9E
:101B10004874FF1F2DE9F041DFF8B8090068B0F103
:101B20000A0400250026DFF85807D0F8C870DFF84F
:101B3000200C00210160DFF81C0C00210160DFF89F
:101B4000180C00210160DFF8140C00210160DFF89F
:101B5000100C00210160DFF87C090068D0F133002F
:101B60000A30060001200500312E4FDA022094FBD6
:101B7000F0F0854218DADFF8DC0B0068DFF80017B8
:101B800051F826100818DFF8F81611EB860149689D
:101B9000401ADFF8C01B0860DFF8C00B0068401C6B
:101BA000DFF8B81B08602EE0DFF8AC0B0068DFF848
:101BB000D01651F826100818DFF8C41611EB86016C
:101BC0004968401ADFF8901B0860DFF8940B006842
:101BD000401CDFF88C1B0860DFF8740B006801F014
:101BE000A5FF8046DFF8980650F82600C01B01F0DC
:101BF0009DFF804507DADFF8880650F82600C01BF5
:101C0000DFF84C1B0860761C6D1CADE7BDE8F08169
:101C1000002000210800332808DADFF8641651F8A4
:101C20002010DFF8402B8154401CF4E7704700007F
:101C30008874FF1F8C74FF1F9074FF1F8074FF1F38
:101C40008474FF1F9874FF1F2DE9F04F85B00025A5
:101C50005FF0000A23275FF0230900200490002092
:101C600003900024002002905FF0000B0020019000
:101C700000208DF8010000265FF0000800208DF89C
:101C80000000DFF8E40A0021017000200500332D78
:101C900009DADFF8D80A00212954DFF8D40A002134
:101CA00029546D1CF3E7DFF8CC0A0078DFF8C81A76
:101CB0000978884204D1DFF8C40A0121016035E0C7
:101CC000DFF8B00A0078DFF8B81A0978884204D142
:101CD000DFF8A80A0221016028E0DFF8980A0078FE
:101CE000DFF8A01A0978884220D1DFF88C0A007842
:101CF000DFF88C1A0978401A01F018FF052804DA79
:101D0000DFF8780A0021016010E0DFF8740A00783B
:101D1000DFF8641A0978884204D2DFF8600A0121EA
:101D2000016003E0DFF8540A02210160322005005F
:101D3000012DC0F29D829DF80100002806D1DFF838
:101D4000280A0078401CDFF8201A0870252D04DBD3
:101D5000232007002320814607E0DFF82C0A0068D3
:101D60000700DFF8240A00688146002003900490F1
:101D700000208246BAF1460F80F280800498002845
:101D800037D1012F35DB4620DFF8001A00FB0510A4
:101D9000385CFF2809D14620DFF8F01900FB051058
:101DA000381810F8010C002801D0012F20D1DFF8DD
:101DB0009809791E40F8251001200490DFF8880961
:101DC00050F82500012806DBDFF8A4090121295479
:101DD0000020060008E0761CDFF8B4090078B04265
:101DE00002DADFF8AC0906700398002801D045E05C
:101DF0007F1E039800283ED1B9F1450F3BDA4620FB
:101E0000DFF8881900FB051019F80000FF2809D138
:101E10004620DFF8781900FB051019EB0000407828
:101E2000002802D0B9F1440F23D1DFF8200919F1BD
:101E3000010140F8251001200390DFF8100950F847
:101E40002500452806DADFF824090121295400205D
:101E500080460AE018F10108DFF8380900784045AB
:101E600003DADFF8300980F800800498002802D0F7
:101E700004E019F101091AF1010A7BE7049800282E
:101E800004D1DFF8C408002140F825100398002889
:101E900004D1DFF8B808452140F82510242D80F240
:101EA000E581DFF8D8080068012840F0EA80DFF813
:101EB000980850F82500DFF8941851F82510DFF83D
:101EC000882852F82520891A022291FBF2F108187D
:101ED000DFF8B4180968884245DADFF86C0850F872
:101EE0002500DFF8641811EB85014968401A01F0FC
:101EF0001DFE032837DADFF8540850F82500DFF814
:101F00004C1811EB85014968401A01F00FFE0328B7
:101F100029DADFF8340850F82500DFF8301851F8D6
:101F20002510DFF8242852F82520891A022291FB77
:101F3000F2F1081801900198DFF84C180968401A6E
:101F400001F0F4FD142880F29C80DFF83C08019930
:101F50000160DFF834080068022880F292800120D6
:101F60008DF801008DE0DFF8E00750F82500DFF87C
:101F7000DC1751F82510DFF8D02752F82520891AF0
:101F8000022291FBF2F10818DFF8FC170968814280
:101F90000BDBDFF8B80710EB85004068801CDFF82A
:101FA000AC1751F8251088426BDA0020040000209D
:101FB000029000208DF8000001208346BBF1450F00
:101FC0003DDA4620DFF8C41700FB05101BF80000BF
:101FD000FF280CD14620DFF8B41700FB05101BEBDF
:101FE00000004078FF2802D1002C00D15C46002C74
:101FF00022D04620DFF8941700FB05101BF80000E4
:10200000002819D14620DFF8841700FB05101BEBD0
:102010000000407800280FD14620DFF8701700FB41
:1020200005101BEB00004079002805D1CDF808B061
:1020300001208DF8000002E01BF1010BBEE79DF8C6
:10204000000000281DD00298001B022190FBF1F037
:102050000019DFF834170968884212DA0298001B69
:10206000022190FBF1F000190190DFF81C070199A3
:102070000160DFF814070068032802DA01208DF8F8
:102080000100DFF8F8060068022840F0EF80DFF872
:10209000B80650F82500DFF8B41651F82510DFF81F
:1020A000A82652F82520891A022291FBF2F108187D
:1020B000DFF8D4160968814245DADFF88C0650F85B
:1020C0002500DFF8841611EB85014968401A01F0FC
:1020D0002DFD032837DADFF8740650F82500DFF805
:1020E0006C1611EB85014968401A01F01FFD0328A9
:1020F00029DADFF8540650F82500DFF8501651F8B9
:102100002510DFF8442652F82520891A022291FB77
:10211000F2F1081801900198DFF86C160968401A6E
:1021200001F004FD142880F2A180DFF85C0601991B
:102130000160DFF8540600684328C0F29780012050
:102140008DF8010092E0DFF8000650F82500DFF876
:10215000FC1551F82510DFF8F02552F82520891AD2
:10216000022291FBF2F10818DFF81C160968884278
:102170000BDBDFF8D40550F82500DFF8CC1511EBA8
:1021800085014968891E884270DA00200400002019
:10219000029000208DF8000045208346BBF1020F1D
:1021A00042DB4620DFF8E41500FB05101BF80000B9
:1021B000FF280FD14620DFF8D41500FB05101BEBDC
:1021C000000010F8010CFF2804D10298002801D16A
:1021D000CDF808B00298002823D04620DFF8AC15CF
:1021E00000FB05101BF8000000281AD14620DFF87C
:1021F0009C1500FB05101BEB000010F8010C0028DB
:102200000FD14620DFF8841500FB05101BEB000002
:1022100010F8050C002804D15C4601208DF8000060
:1022200002E0BBF1010BB9E79DF8000000281DD0CA
:102230000298001B022190FBF1F00019DFF848150D
:102240000968814212DA0298001B022190FBF1F02A
:1022500000190190DFF8300501990160DFF82805C9
:102260000068442802DB01208DF801006D1E5FE547
:1022700005B0BDE8F08F00009474FF1F7862FF1F67
:10228000D064FF1FF8B504000D0016000027F6B259
:10229000332E01D332200600EDB2F6B2B54229D179
:1022A000EDB214EB850050F8040CEDB214EB85018F
:1022B00049680818022190FBF1F0EDB244F82500BE
:1022C000EDB2DFF8840450F82500EDB2DFF87C149D
:1022D00051F82510EDB2DFF8702452F82520891A44
:1022E000022291FBF2F10818EDB2DFF86C1D41F803
:1022F000250041E0EDB2F6B2B5423DD2F6B256FA53
:1023000085F0022190FBF1F00700EDB254F82500B2
:10231000F6B254F826100818022190FBF1F044F8A8
:102320002700DFF8240450F82700DFF8201451F8C4
:102330002710DFF8142452F82720891A022291FB73
:10234000F2F10818DFF8101D41F82700EDB2681C03
:10235000B84206DA3A00D2B22900C9B22000FFF72B
:1023600091FF781CF6B2B04206DA3200D2B23900E0
:10237000C9B22000FFF786FFF1BD00009C74FF1F6B
:10238000000080BF0100803FCDCC0C3F2DE9F04123
:1023900000240025002600275FF00008DFF8BC0CB1
:1023A0000021016032200400002C63D4002E61D192
:1023B000DFF8940350F82400DFF8901351F824104C
:1023C000E14A52F82420891A022291FBF2F10818FE
:1023D000DFF8841C41F82400DFF8800C0068401C02
:1023E000DFF8781C0860DFF8700C50F8240004282F
:1023F00005DBDFF8640C50F82400432802DB0120E1
:10240000060037E02E2C22DADFF84C0C50F82400BE
:10241000DFF8441C11EB84014968401A01F086FB87
:10242000042814DBDFF8300C10EB84004068DFF880
:10243000281C11EB840149680818DFF81C1C11EBFB
:1024400084018968401ADFF8101C41F82400DFF885
:10245000080C50F824004621CC4A01FB0421405CC2
:10246000002805D17F1CFFB2032F01D301200600F5
:10247000641E99E732200400DFF8E00B0068D0F119
:102480003300401DA04217DA0020804600200500DE
:10249000052D08DA601BDFF8C01B51F8200010EB97
:1024A00008086D1CF4E7052098FBF0F0DFF8A81B86
:1024B00041F82400641EDFE7BDE8F0810100803EA2
:1024C0000100204200002042000020C2CC62FF1F19
:1024D0000000F03F7062FF1F2DE9F84F5FF0000B26
:1024E000002400255FF0000A0026002700208DF858
:1024F00000005FF000095FF00208FFF7A5FB002075
:102500008346BBF1330F07DADFF8540B00210BF8D9
:1025100000101BF1010BF4E70020814600208346E8
:10252000BBF1330F29DABBF1010F23DB864850F8EA
:102530002B00854911EB8B0151F8041C401ADFF880
:10254000241B0BF80100DFF81C0B1BF9000001F045
:10255000EDFA5FFA88F8804504DB7B4850F82B00E1
:10256000022807DA5FFA89F9DFF8F40A09F800B0FF
:1025700019F101091BF1010BD2E75FFA89F9DFF8C4
:10258000E00A332109F800100020824600200600EE
:10259000DFF8CC0A90F90000401E07003800040064
:1025A00000200500012083465FFA89F9CB4525DA32
:1025B000DFF8AC0A1BF90000DFF8A41A1BEB0101DD
:1025C00011F9011C401A03280DDA1AF1010A5645C7
:1025D00011DA564638000400DFF8840A1BF90000BF
:1025E000401C050007E0DFF8780A1BF90000401ED8
:1025F0000700002082461BF1010BD5E7E4B20B2C4B
:1026000009D32A00D2B22100C9B24F48FFF73AFEDF
:1026100001208DF8000000208346BBF1330F07DA5C
:10262000DFF83C0A00210BF800101BF1010BF4E766
:102630000020814600208346BBF1330F29DABBF12D
:10264000010F23DB414850F82B00404911EB8B016F
:1026500051F8041C401ADFF80C1A0BF80100DFF8DF
:10266000040A1BF9000001F061FA5FFA88F880455E
:1026700004DB364850F82B00442807DB5FFA89F961
:10268000DFF8DC0909F800B019F101091BF1010BB1
:10269000D2E75FFA89F9DFF8C809332109F8001099
:1026A000002082460020060000200500DFF8B00967
:1026B00090F90000401E0700380004000020834607
:1026C0005FFA89F9CB4525DADFF894091BF9000098
:1026D000DFF88C191BEB010111F9011C401A0328CA
:1026E0000DDA1AF1010A564511DA5646380004008F
:1026F000DFF86C091BF90000401C050007E0DFF85B
:1027000060091BF90000401E0700002082461BF1F3
:10271000010BD5E7E4B20B2C09D32A00D2B2210079
:10272000C9B20A48FFF7AEFD01208DF800009DF800
:102730000000002803D1DFF8580C00210170BDE82B
:10274000F18F0000B005FF1F3863FF1F0464FF1FF7
:10275000B074FF1FA074FF1FA474FF1FA874FF1F95
:10276000AC74FF1FB874FF1F2D75FF1F9873FF1FF8
:10277000CC73FF1F2975FF1F2675FF1F9473FF1F62
:102780002875FF1F2775FF1F3405FF1FA065FF1F5A
:102790002B75FF1F2C75FF1F2DE9FE4F0024DFF85E
:1027A000DC0A0068D0F139000190322500260027AC
:1027B0005FF000085FF000095FF0000A002002905F
:1027C0005FF0000B00208DF8020000208DF8010062
:1027D00000208DF80000DFF84C0B00210160DFF8CD
:1027E000480B00210160DFF8440B002101700198C3
:1027F000052801DA0520019001980400AC4222DA94
:10280000DFF8900B50F82400462802DB45200290A8
:1028100004E0DFF8800B50F824000290DFF8780B1A
:1028200050F82400002802D55FF0000B03E0DFF829
:10283000680B50F824B00298B0EB0B00382802DB8C
:10284000761C641CDAE7052E06DBDFF8440B012159
:102850000170052E22DB19E0DFF8400B0068052827
:102860000FDBDFF82C0B01210170DFF8340B90F83F
:102870003000002802D1FFF72FFE05E3FFF72CFE02
:1028800002E3DFF80C0B00210170FDE2DFF8140B0E
:102890000068002802D1FFF71FFEF5E2DFF8040B05
:1028A0000068022840F09F800198040000208146C3
:1028B00000208246AC420DDADFF8DC0A50F8240032
:1028C000DFF8D41A11EB84014968401A002801D1BD
:1028D000641CEFE7DFF8C00A50F82400DFF8B81AEC
:1028E00011EB84014968401A01283EDB19F1010906
:1028F000641CAC422BDADFF8A00A50F82400DFF8A1
:10290000981A11EB84014968401A012809DB19F172
:102910000109BAF1000F18D001208146002082463B
:1029200013E0DFF8740A50F82400DFF86C1A11EB9A
:1029300084014968401A002807D5B9F1030F02DB6A
:10294000002F00D127001AF1010A641CD1E7B9F168
:10295000030F48DBBAF1030F45DBDFF8D009012193
:102960000170DFF8C00907603DE019F10109641C3E
:10297000AC422BDADFF8200A50F82400DFF8181AEE
:1029800011EB84014968401A002809D519F10109A1
:10299000BAF1000F18D0012081460020824613E0D2
:1029A000DFF8F40950F82400DFF8EC1911EB84018A
:1029B0004968401A012807DBB9F1030F02DB002F39
:1029C00000D127001AF1010A641CD1E7B9F1030F05
:1029D00009DBBAF1030F06DBDFF8500901210170B2
:1029E000DFF840090760DFF8BC090068012840F003
:1029F0009F80019804000020814600208246AC425E
:102A00000DDADFF8900950F82400DFF8881911EB8F
:102A100084014968401A002801D1641CEFE7DFF8FF
:102A2000740950F82400DFF86C1911EB840149682F
:102A3000401A01283EDB19F10109641CAC422BDA73
:102A4000DFF8500950F82400DFF8481911EB840131
:102A50004968401A012809DB19F10109BAF1000F90
:102A600018D0012081460020824613E0DFF82409B7
:102A700050F82400DFF81C1911EB84014968401A52
:102A8000002807D5B9F1030F02DB002F00D1270082
:102A90001AF1010A641CD1E7B9F1030F48DBBAF15E
:102AA000030F45DBDFF8840801210170DFF87808A7
:102AB00007603DE019F10109641CAC422BDADFF834
:102AC000D40850F82400DFF8CC1811EB84014968D1
:102AD000401A002809D519F10109BAF1000F18D0E0
:102AE000012081460020824613E0DFF8A80850F854
:102AF0002400DFF8A01811EB84014968401A01286E
:102B000007DBB9F1030F02DB002F00D127001AF118
:102B1000010A641CD1E7B9F1030F09DBBAF1030F15
:102B200006DBDFF8080801210170DFF8FC07076009
:102B3000DFF8F8070078002800F01A81FFF784F822
:102B4000DFF860080068012840F08680B7F10800CF
:102B50008046B8F1010F12DBDFF84C0818F80000CE
:102B6000002809D0DFF82C0850F82700DFF82418D7
:102B700051F82810884202DAB8F10108E9E7DFF8D5
:102B8000140810EB880050F8080CDFF8081851F80A
:102B9000271088420CDA3A00D2B24046811EC9B2F0
:102BA000DFF8F007FFF76EFB01208DF8000062E10F
:102BB00000200400462C1CDA4620DFF8F01700FB4A
:102BC0000810201810F88C0CFF2810D14620DFF8D0
:102BD000DC1700FB0810201810F88B0C002806D119
:102BE000DFF8B00710EB880040F8084C01E0641CE7
:102BF000E0E7DFF8A00710EB880050F8080CDFF8DA
:102C0000941751F8271088420CDA3A00D2B24046A5
:102C1000811EC9B2DFF87C07FFF734FB01208DF875
:102C2000000028E1DFF8880700781528C0F023812C
:102C3000DFF8600710EB8800022140F8081C3A001A
:102C4000D2B24046811EC9B2DFF84807FFF71AFB2F
:102C500001208DF800000EE1DFF848070068022827
:102C600040F00981B7F108008046B8F1010F05DB9B
:102C7000DFF8400718F80000002809D0DFF818072F
:102C800050F82800DFF8101751F82710884202DAB0
:102C9000B8F10108E9E7DFF8000750F82700DFF88E
:102CA000F81611EB880151F8081C88420CDA3A003A
:102CB000D2B24046811EC9B2DFF8DC06FFF7E2FA65
:102CC00001208DF80000D6E045200400012C1CDB1B
:102CD0004620DFF8D81600FB0810201810F88C0CDE
:102CE000FF2810D14620DFF8C41600FB081020187A
:102CF00010F88D0C002806D1DFF89C0610EB880038
:102D000040F8084C01E0641EE0E7DFF88C0650F85C
:102D10002700DFF8841611EB880151F8081C88425F
:102D20000CDA3A00D2B24046811EC9B2DFF868061A
:102D3000FFF7A8FA01208DF800009CE0DFF8780684
:102D400000781528C0F09780DFF84C0610EB88005B
:102D5000442140F8081C3A00D2B24046811EC9B254
:102D6000DFF83406FFF78EFA01208DF8000082E0CC
:102D7000FEF76AFFDFF82C06006801283BD114201B
:102D80008046DFF8240618F80000002802D118F168
:102D90000108F6E7DFF8100618F80000012802D154
:102DA00018F10108F6E74046801E8DF8020018F180
:102DB0000808B8F1320F0EDADFF8EC0518F8000059
:102DC000002805D0DFF8CC0550F82800442802DBA5
:102DD00018F10108EDE718F104008DF801009DF8E5
:102DE00001209DF80210DFF8AC05FFF74BFA012037
:102DF0008DF800003FE0DFF8AC05006802283AD10A
:102E000014208046DFF8AC0518F80000002802D135
:102E100018F10108F6E7DFF89C0518F80000012812
:102E200002D118F10108F6E74046801E8DF8020035
:102E300018F10808B8F1320F0EDADFF8780518F843
:102E40000000002805D0DFF8500550F828000328BE
:102E500002DA18F10108EDE718F104008DF801001D
:102E60009DF801209DF80210DFF82C05FFF70AFA03
:102E700001208DF800009DF80000002804D1DFF843
:102E8000100500210170FFE7BDE8F78FF0B40020C6
:102E900000250021002200230024DFF82065002700
:102EA0003760DFF81C6500273760DFF818650027FA
:102EB0003760DFF8146500273760DFF81065366883
:102EC000350000263000DFF808653668B04255DA74
:102ED000DFF80065AE57002E09D1491CDFF8DC642D
:102EE00036688E4205DADFF8D464316001E00026EE
:102EF0003100DFF8E064AE57002E04D0DFF8D46470
:102F0000AE57012E09D1521CDFF8B46436689642E0
:102F100005DADFF8AC64326001E000263200DFF849
:102F2000B464AE57022E09D15B1CDFF89864366892
:102F30009E4205DADFF88C64336001E0002633003E
:102F4000DFF89064AE57022E04D0DFF88864AE57E5
:102F5000032E09D1641CDFF870643668A64205DAD6
:102F6000DFF86464346001E0002634001D351E265D
:102F700095FBF6F706FB1755401CA4E7F0BC70471D
:102F800080B5DFF854040078002815D0DFF84C0431
:102F900090F90000002805D0DFF8400490F9000007
:102FA000012809D1DFF824040068DFF82814DFF8CD
:102FB0002C241278425406E0DFF810040068DFF891
:102FC000141402224254DFF804040068401C1E213D
:102FD00090FBF1F201FB1200DFF8F0130860DFF85C
:102FE000F0030068401CDFF8E8130860DFF8E00336
:102FF00000681E2803DBDFF8D8031D210160FFF7FE
:1030000045FF01BD80B5DFF8D82327212320FEF737
:103010007DFC01F03FF8DFF8CC130860DFF8C02337
:103020002C212820FEF772FC01F034F8DFF8B813E9
:103030000860DFF8B003006800F078FD042808DAC3
:10304000DFF8A403006800F071FD032801DA012015
:1030500000E0002002BD0000D064FF1F7462FF1F6B
:10306000D062FF1F0463FF1F10B55FF0FF34DFF86D
:103070007C03006800F05AFD1F2822DBDFF8700394
:103080000068DFF8701300F03DFF07D8DFF8680331
:1030900000780F2802D20320040012E0DFF850036A
:1030A00000685FF07E5100F02DFF0AD87348006879
:1030B0001D2806DADFF840030078162801D2022026
:1030C0000400DFF82803006800F030FD052812DA5C
:1030D000DFF82823D2E9000100225FF0804300F0EE
:1030E0000DFD08D2C2480068C54900F08DFE02D22D
:1030F000002004000FE0BD48006800F017FD0F2815
:1031000009DABE4AD2E900010022BE4B00F0F6FC0B
:1031100001D2012004005FF0FF3064B2844242D14A
:10312000AD4800210170B4480078222831D3012035
:103130000400AC480068AC490968401A00F0F6FC8D
:103140001C280BDAB0480068AA4900F0DBFE05D95C
:10315000AE480068A74900F0D5FE04D8022004005C
:103160009D4802210170AA4890F9000067281DD1EE
:1031700067200400A7480068401CA6490860A548CD
:103180000068032812DB02200400A248002101602D
:103190000CE099480078152802D30220040005E0CD
:1031A0000320040002E08C48012101708B48047068
:1031B000FFF7E6FEFFF726FF002802D087486721C9
:1031C0000170864890F90000672802D091480021DC
:1031D0000160914800689149804A92F9002041F8C5
:1031E00020208D480068401C042190FBF1F202FB76
:1031F000110289480260794890F9000088490968FD
:10320000864A52F82110884218D0854800688349C0
:1032100051F8200082490968491C042291FBF2F30D
:1032200003FB12137D4951F82310884206D17C48D4
:1032300000687A4951F820006849087076480068AB
:10324000401C042190FBF1F202FB1102744800685B
:10325000824209D172480068401C042190FBF1F2BF
:1032600002FB11026E48026010BD6E480068002823
:1032700003D16D486D490988018070477062FF1F56
:1032800070B500252326300000F076FE0200684865
:103290000168C9B267480068C0B2FEF737FB6649EB
:1032A00008603B480078002831D000200400332C0F
:1032B0000FDA384850F824001438364941F8240011
:1032C000354850F824001230334941F82400641C7A
:1032D000EDE7FFF75BF859480321016057480068A4
:1032E000D0F1340053490860514832210160212057
:1032F0000600300000F040FE02004D480168C9B2EF
:103300004C480068C0B2FEF701FB4B4908604C48CE
:10331000008840F22D11884202D247480021016006
:1033200070BD00000074FF1F0474FF1F2F75FF1F86
:1033300080B5FDF749FAFDF715FBFDF728FC41487C
:1033400000210160FDF7A8FD3F4800680D2816DB4D
:103350003E483D4909680160FEF7B4F8FEF7F4F80D
:10336000FEF72EF8FEF73AF9FEF7CAF935480121C3
:103370000160FEF74DFCFEF7CDFBFEF71FFBFFF7EC
:103380000BFAFFF771FEFFF77BFFFFF76EFF01BD42
:103390002E75FF1F0464FF1F3863FF1F7C74FF1F1F
:1033A0004874FF1F9473FF1F9873FF1FA065FF1FD2
:1033B0002B75FF1FCC73FF1F2C75FF1F3074FF1F71
:1033C0003474FF1F3874FF1F3C74FF1F0C74FF1F01
:1033D0000874FF1F1074FF1F3905FF1F3805FF1FFA
:1033E00000000C42A074FF1FA474FF1F9062FF1F17
:1033F0004474FF1F9A99993F2975FF1FB005FF1F5D
:10340000CDCCCC3D000034409874FF1F9C74FF1F4E
:103410003075FF1F4074FF1F0075FF1FEC74FF1F06
:10342000FC74FF1F0475FF1F1C75FF1F1E75FF1F17
:103430004405FF1F4005FF1F9C65FF1F3C05FF1F44
:103440001875FF1FB474FF1F7062FF1F0875FF1F00
:10345000002200F041BE50F8041B61B150F8042B6B
:10346000D30744BFA9F101039A18002342F8043B93
:10347000091FFAD1EFE77047010040F10980F446D7
:10348000404200F005F851F000416047010000BFE4
:1034900009D0B0FA80F18840C91CC1F584610905E2
:1034A00001EBD02140057047B0B581EA030C0CF068
:1034B000004C40F2FF7515EA11541DBF15EA135771
:1034C000AC42AF4239E0E41923EA455343F4801398
:1034D000C90241F0004141EA505EC7021100A7FB5A
:1034E000020200284FF00000EEFB01204FF0000127
:1034F000E3FB072118BF42F00102401800214941B7
:10350000E3FB0E01A4F580640F0302D25200404198
:10351000494154F101046CDD470872F1004250F159
:10352000000051EB0451A1F580115CBF41EA0C0190
:10353000B0BD4CEA05510020B0BD05EA1357AC42BE
:1035400014BFAF4241E050EA410E1CBF52EA430EA5
:1035500002E061460020B0BD24423C441BD15FEA3A
:10356000070EF6D0090302BF01460020AEF1140E8B
:10357000B1FA81F7AEEB070401FA07FE0C37C7F189
:10358000200100FA07F7C8404EEA000E23EA45532F
:1035900043F48013A2E733F00043B3FA83F704BF88
:1035A000B2FA82FE77440B3FE41BB7F1200E2FBF27
:1035B00002FA0EF3BB40C7F1200E22FA0EFE38BF0E
:1035C00043EA0E03BA40641C82E750EA410E14BF7E
:1035D00052EA430E6FF000014FF4001717EB430F50
:1035E0008ABF194617EB410FB5E74CEA0551002099
:1035F000B0BDD4F10104B4F120070FDAC4F1200703
:10360000520828BF42F0010210FA07F501FA07F745
:10361000E1BF2A43E0403843E1400FE0352C98DC1D
:10362000C7F1200452EA400220FA07F218BF42F024
:10363000010231FA07F0A1400A43002172F1004271
:1036400050F1000051EB0C01B0BD704770B44FF069
:10365000004591EA030C44BF6B4000F099B900BFEC
:10366000841A71EB030603D2001BB1411219734196
:103670004FF4001C1CEB410F34BF7CEB430443E0D0
:103680000C0DA4EB1356352E50DC45EAC323DB0AA0
:1036900045EAC121C912B6F120050DDD63FA05F630
:1036A000EB4086EA0305124218BF45F00105C01839
:1036B00051F100010CD213E062FA06F5F2405540D8
:1036C000F3415A40B340F3405A408018594107D360
:1036D00049085FEA30005FEA350528BF45F001057B
:1036E00001F58011420875F1004250F1000041EBF4
:1036F000045170BC4FF4001C1CEB410F38BF7047E5
:103700000020090D090570471CEB410F10D252EA49
:1037100043060BD0BCEB410F05D80C0DAB43661E26
:10372000342EB5DD02E0AB438018594170BC7047C0
:1037300070BC7047F0B540F2FF7581EA030C0CF0E5
:10374000004C15EA11541DBF15EA1357AC42AF42A5
:10375000E5E0BC41C1F31301C3F31303801A99419F
:1037600043F4801304D2641E40004941801859413B
:10377000C90241EA5051B1FBF3F603FB1611A2FB5B
:103780000675D7EBC020A94102D2761E8018594198
:10379000C90241EA5051B1FBF3FE03FB1E11A2FB2B
:1037A0000E75D7EBC020A94103D2AEF1010E8018EF
:1037B0005941890241EA9051760546EA8E2EB1FBC5
:1037C000F3F603FB1611A2FB0675D7EB8020A94187
:1037D00002D2761E80185941C90241EA50514EEA80
:1037E000060EB1FBF3F603FB1611A2FB0675D7EB31
:1037F000C020A94102D2761E80185941C90241EA6F
:103800005051B1FBF3F703FB1711A2FB0735D3EBC4
:10381000C020A94167F100070CBF004247F0010733
:1038200066F3D5274FEA1E31B80814F5806412DD1F
:10383000BD0775F1004250EB0E5051EB045111F5EC
:10384000801F5CBF41EA0C01F0BD4CF07F6141F08C
:10385000E0410020F0BDBD076D0840EA0E5041F484
:103860008011D4F10104B4F120060ADAC4F1200673
:103870000200E04001FA06F3E1401843B24015436C
:103880000EE0342C13DCC6F1200445EA40056D0837
:1038900020FA06F2154321FA06F0A1400D4300215B
:1038A00075F1004250F1000051EB0C01F0BD002019
:1038B0005FEA0C01F0BDCFB992185B41B3FA83F710
:1038C00004BFB2FA82F6BF190B3FB7F120062FBF33
:1038D00002FA06F3BB40C7F1200622FA06F638BF0B
:1038E0003343BA401CB1E419641E33E77F4231F020
:1038F0000041B1FA81F404BFB0FA80F6A4190B3C80
:10390000B4F120062FBF00FA06F1A140C4F1200651
:1039100020FA06F638BF3143A0403C1B1AE7AC4200
:103920001ABF05EA1357AF4212E050EA41061CBF26
:1039300052EA4306BFE750EA4107304661461CBFE2
:1039400041EA0551F0BD52EA430C08BFC143F0BD46
:1039500000204FF4001616EB410F98BF16EB430FF3
:1039600008BF16EB410F24BFC14305E016EB430F20
:103970000CBF61464CEA0551F0BD000070B44FF039
:10398000004591EA030F44BF6B40FFF769BE00BFDB
:10399000841A71EB030604D26E40001BB141121968
:1039A00073414FF4001C1CEB410F34BF7CEB43060A
:1039B00084E00C0DA4EB1356362E7DDC012E43DC87
:1039C00045EAC32343EA525312BFD20292025B0874
:1039D000240545EAC12141EA5051D2EBC02099416A
:1039E00025D407D1B0FA80F610FA06F164D0002091
:1039F000203608E0B1FA81F6B140C6F1200220FA83
:103A000002F21143B0404FEAF474B4EB465434F080
:103A100001064FEA74040AD8D6F50016760D04F0B4
:103A20000044F04061FA06F25040F1404840C00ABC
:103A300040EA415021F0004128BF5FEA500550F1B3
:103A4000000044EBD12137E045EAC323DB0A45EA15
:103A5000C121C90AB6F120050EDD42EA0242120C6C
:103A6000C5F1200603FA06F6EB4042EA06056D4270
:103A7000984161F100010DE062FA06F5F24055400F
:103A800063FA06FC82EA0C02F3405A406D42904110
:103A900061EB030111F4801F05D1641E620502D0A1
:103AA0006D004041494121F48011430875F1004304
:103AB00050F1000041EB045170BC70471CEB410F0A
:103AC00015D223F0004352EA43060BD04FEA4C0CC8
:103AD000BCEB410F04D80C0D661E342EB7DDEBE7AE
:103AE000801A994150EA410608BF0021E4E708BF67
:103AF0001CEB430F28BF6FF00001DDE74FF4001C03
:103B00001CEB410F94BF1CEB430F09E041EA030C8F
:103B100050EA4C0C52EA0C0C03D2994208BF904276
:103B2000704714BF8B42824270470000002803D5C3
:103B30005FF0FF314843FFE77047000080B572B681
:103B400079480068401C7849086078480068401C43
:103B50007649086000F0A7FB75480068401C74496E
:103B6000086000F0F9FC70480068012802D100F0FC
:103B700063FD49E06C480068022806D16D48016881
:103B80006D48006800F0AAFD3EE067480068032821
:103B900011D16A480068401C68490860674800689D
:103BA000142831DB00F0B2FA6448002101605F485C
:103BB0000021016028E05C480068042811D16048B9
:103BC0000068401C5E4908605D48006802281BDBF5
:103BD00000F0BEFB5A4800210160554800210160F9
:103BE00012E05148006805280EDB4F4800210160B3
:103BF00054480068401C5349086052480068022835
:103C000002DB5048002101604F48006850F001007D
:103C10004D49086062B601BD4C48006850F0100084
:103C20004A4908604A48006830F010004849086076
:103C300048480078DC2802D14748012101707047CC
:103C400046480068800519D5444800684FF4007163
:103C50000843424908603F480078401C3D490870CD
:103C6000C0B2042190FBF1F202FB1102002A05D13F
:103C70003748006850F0100035490860704700B5BB
:103C800085B037480068C0064BD53548006850F00D
:103C900010003349086033480078401C31490870EF
:103CA00030480078022802D32E48002101702D48A8
:103CB0000078002813D1212002904FF4A0700190C9
:103CC000002000904023284A2849042000F04EFE9E
:103CD000572000F0E6FF1F481021017021E01C482A
:103CE000006830F010001A490860572001F023F8EE
:103CF000FCF74AFD002003903320029046200190FB
:103D0000002000900023462233211948FCF79EFB37
:103D1000184908601648FCF7D8FCFCF7B8FCFFF718
:103D200007FB05B000BD00008C06FF1FC805FF1F84
:103D30005C06FF1FF805FF1F4006FF1F9006FF1FD0
:103D40009406FF1F9806FF1F0C710340248000405B
:103D50000C8000402805FF1F2075FF1FA090044025
:103D6000A0A004402175FF1FA006FF1FD0F00F4048
:103D70006046FF1F9C06FF1F4FEAF17CBCF1E04C40
:103D80002CBFBCF5001F11E05FEA4C0C34BFBCF146
:103D90007F5F2EE05FEA9C0C4FEA0C1C4FEA3C0C64
:103DA000C10071F100414CEB50707047C90241EA0B
:103DB0005051C00218BF41F0010141F000414FEAEB
:103DC0006C50C0F10900212810D240EACC7CCCF123
:103DD000200C11FA0CF070F10040CCF1200C21FA0B
:103DE0000CF00CF0004C40EB0C0070474FEACC702C
:103DF0007047490011F5001F04D84FEACC10FF307E
:103E0000C0057047C81770474FF0807C1CEB400F0F
:103E100094BF1CEB410F05E040EA010C5FEA4C0C3B
:103E200001D28842704718BF81427047FF2212EAD0
:103E3000D05C1DBF12EAD153944593422BE09C44C1
:103E4000D30780EA01021A4043EA002043EA012135
:103E5000A1FB0030410038BF40007CF17F010BDB4B
:103E6000FE294ADA5B0842EAC15153EA006373F162
:103E7000004C51EB10207047D1F1080CDCF120010F
:103E80002FDB5B0810FA01F10B4373F1004120FABC
:103E90000CF05041704794451CBF02EAD153934245
:103EA00080EA010202F000421DD0400019D0490012
:103EB00017D05BB9634514D00902B1FA81F3994078
:103EC000BCEB030CC00140F00040C1E70002B0FAB7
:103ED00080FC10FA0CF0B3EB0C0CC90141F000416E
:103EE000B6E71000704740000AD0490008D010F132
:103EF000807F94BF11F1807F02E042F0FF40704765
:103F0000D04370474FF0807C1CEB400F94BF1CEBFC
:103F1000410F05E040EA010C5FEA4C0C01D28142FE
:103F2000704718BF884270475FF0FF0C1CEAD05101
:103F300014BF614506E0C110400721F0E04101F1E6
:103F40006051704779B900F0004100020AD0B0FA20
:103F500080FC00FA0CF001F16051A1EB0C5101EB77
:103F6000D0214005704741020CBF40F4E0016FF0E2
:103F70000001002070470000002840F10980F4464D
:103F8000404200F005F850F000406047002800BFB4
:103F90000AD0B0FA80F18840D1F19D01C90502062E
:103FA00072F1004241EB10207047000090EA010FCF
:103FB00044BF81F0004100F00DBF00BF431A4FF035
:103FC00000423EBF5340C01AC91800BFD3095FEA80
:103FD000D05C13EB400F34BFB3EB410F40E07CEB00
:103FE000D1530CD342EA012122D8D1EB402009D38E
:103FF000400A28BF5FEA500140EBCC507047401A9E
:1040000015D04002B0FA80F2521C9040400A4FEAAC
:104010003C23B3EB026384BF00EB730007E040F482
:1040200000001A16DB07C2F10102D04018437047A6
:10403000182BFCDC31FA03F202FA03F3591A38BFE9
:1040400042F00102D2EB40203CBF4000ACF1010C39
:104050005FEACC5CC20572F100414CEB5020704726
:1040600013EB400F0FD24B0009D0ACEBD153022B16
:1040700003DB4902172BDDDD70479143401A4300F3
:10408000D5D10020704713EB410FD0D36FF0000063
:10409000704700004100090E7F3915D4D1F11F018E
:1040A00014D4400007D2C00140F00040C84048BFCF
:1040B0006FF000407047C00140F00040C8404CBF66
:1040C0004FF00040404270470020704700424FF0E0
:1040D000004058BFC043704700B500BF130096466C
:1040E0009446103928BFA0E80C50FAD85FEA417C0A
:1040F00028BF0CC048BF40F8042BC90728BF20F8D0
:10410000022B48BF00F8012B00BD0000F0B573483A
:10411000006873490968401A724908807148B0F90B
:104120000000022190FBF1F06E4908806B480021ED
:1041300001606B48002101606A48B0F90000FFF798
:104140009BF90022684BFFF7AFF904000D006748A8
:104150000068FFF7E9FE0022634BFFF7A5F9220094
:104160002B00FFF773FAFFF707FE614908605F480D
:104170005F49096801605F48B0F90000FFF7FCFE85
:104180005B490968FFF712FF5B4908605A480068FD
:104190005A49FFF739FE02D2002006000BE05648CC
:1041A00000685749FFF730FE03D25FF07E500600EB
:1041B00001E054480600504800680021FFF7A2FEC5
:1041C00011D251480068FFF7AFFE02000B005FF00C
:1041D00033304E49FFF768F9FFF7CEFD4A490860D2
:1041E0005FF07E5006004448016847480068FFF7CA
:1041F0001DFE07004048016845480068FFF716FEAD
:104200003100FFF713FE040042480068210000F06F
:10421000D9FD40490860384800683F49FFF772FE01
:1042200005D9354800683D49FFF7EEFD02D23C480C
:1042300000210160304800683A490968FFF7B6FE7E
:1042400037490968FFF7F2FD050032480068364932
:10425000FFF7DAFD02D22F48344901602D4800688B
:104260003349FFF74FFE02D82A48314901603148EF
:1042700031490968016027480068390000F0A2FD53
:10428000290000F09FFD2C49086026481A4909685A
:104290000160294800682949FFF7B6FD02D2264887
:1042A00027490160F0BD10B523480068214909681D
:1042B000FFF77CFE040023480068401CFFF75CFE0B
:1042C0002100FFF7B3FD204900F0BEFD1949096840
:1042D00000F078FD1D49086010BD00000490034007
:1042E00004800B401A75FF1F0000E03FE005FF1F30
:1042F000DC05FF1F1C75FF1FE405FF1F000096C3B0
:104300000000C8C29A99993FBC05FF1F3333FB3F99
:10431000C005FF1FD805FF1F01007042000070C2DA
:10432000C405FF1FB805FF1FFFFF79C400007AC452
:1043300000006144D005FF1FCC05FF1FFF5F6AC668
:1043400000606AC6C805FF1F0000C842D405FF1FF1
:1043500010B58E488E49096801608E488E490968FB
:1043600001608D488D49096801608D488A49096856
:1043700001608948006887490968FFF717FE894985
:10438000086087480068884900F05EFD874908603A
:104390008748844909680160844800688549FFF7B7
:1043A000B1FD03D88148844901603AE07F48006844
:1043B0005FF07F51FFF7A6FD04D87C485FF0804195
:1043C00001602EE0794800685FF07C51FFF79AFDAC
:1043D00004D876485FF07E51016022E0734800689F
:1043E0005FF03F41FFF78EFD03D870480021016068
:1043F00017E06E4800687149FFF784FD03D86B48E9
:104400006F4901600DE0694800686E49FFF77AFD69
:1044100004D866485FF04041016002E063486A49A1
:104420000160634800686349FFF76CFD03D860488A
:10443000614901603AE05E4800685FF07F51FFF734
:1044400061FD04D85A485FF0804101602EE0584871
:1044500000685FF07C51FFF755FD04D854485FF0C9
:104460007E51016022E0524800685FF03F41FFF753
:1044700049FD03D84E480021016017E04C48006810
:104480004E49FFF73FFD03D849484D4901600DE013
:10449000474800684B49FFF735FD04D844485FF0B2
:1044A0004041016002E042484749016040480168DC
:1044B000414800F087FCFFF7EDFD04003B48016830
:1044C0003D4800F07FFCFFF7E5FD1C213F4A01FB62
:1044D000002050F82400FFF729FB3D4908603C48C4
:1044E0000068FFF749FD3B490968FFF79FFC3A491F
:1044F000096800F067FC3949086027480068002116
:10450000FFF700FD0DD236480068FFF70DFD5FF0A4
:104510006632344BFEF7C8FFFFF72EFC32490860C5
:1045200003E031482E49096801602C4801681A48A7
:104530000068FFF77BFC04002B4801682B480068EB
:10454000FFF774FC210000F03DFC11490860284889
:104550000F490968016010BD10B50D4800680B498E
:104560000968FFF723FD040022480068401CFFF79C
:1045700003FD2100FFF75AFC0B4900F065FC0349DD
:10458000096800F01FFC1A49086010BD5806FF1F9B
:104590005406FF1F4806FF1F4406FF1F9C65FF1FB0
:1045A0006806FF1F6C06FF1F000020417406FF1FF6
:1045B0007806FF1F00002040000040400000C0BF00
:1045C000000080BF000020C0000040C03C04FF1F6E
:1045D0007006FF1F4C06FF1F3404FF1F6006FF1FFD
:1045E0003804FF1F6666F63F6406FF1F0006FF1FC4
:1045F0005006FF1F5C06FF1F70B504000D00B64893
:10460000B649096801602000B3490968FFF7CEFC8C
:10461000B349096800F018FC06002800310000F0DA
:10462000D1FBB0490968FFF701FCAC49096800F00B
:10463000C9FBAA49086070BD80B501220D21002088
:1046400000F09DFDFFF7A2FCA749086001220C21A4
:10465000002000F094FDFFF799FCA44908600122B6
:104660001121002000F08BFDFFF790FCA0490860AD
:10467000A04800689D490968FFF798FCFFF754FCC3
:104680009D4A9E4BFEF710FFFFF776FB9C490860A2
:10469000974800689B490968FFF788FCFFF744FCCE
:1046A000954A994BFEF700FFFFF766FB97490860B4
:1046B00097488D490968FFF779FCFFF735FC954A63
:1046C000954BFEF7F1FEFFF757FB944908608C48C5
:1046D000016892480068FFF78FFF01BD70B50400C4
:1046E0000D007D4801688E480068FFF79FFB0600BB
:1046F0008C4800682900FFF799FB310000F062FB4D
:1047000089490860884801688848006800F05AFBB9
:1047100087490860864801688648006800F052FBB7
:10472000854908608248006882490968FFF73EFCB5
:1047300082490860804800688149FFF7E3FB02D89E
:104740007D48804901607C4800687F49FFF75CFB39
:1047500002D279487C490160784800687849FFF7BF
:10476000D1FB02D8754877490160744800687649E2
:10477000FFF74AFB02D27148734901606E48006836
:104780000021FFF7BFFB07D270486B490968FFF7AC
:104790000DFC6F49086006E06E4867490968FFF73D
:1047A00005FC6B490860654800680021FFF7AAFB1B
:1047B00007D2664861490968FFF7F8FB6649086057
:1047C00006E064485D490968FFF7F0FB624908604C
:1047D000594800680021FFF795FB13D842F2107288
:1047E0000021002000F077FF594800685B49096804
:1047F000FFF7DCFB00F0F2FF02000121002000F0D7
:104800006AFF14E042F210720121002000F063FF01
:104810004F48006890F0004050490968FFF7C6FB18
:1048200000F0DCFF02000021002000F054FF4348AC
:1048300000680021FFF766FB13D842F210720221D4
:10484000002000F048FF4448006845490968FFF728
:10485000ADFB00F0C3FF02000321002000F03BFF8E
:1048600014E042F210720321002000F034FF3A48B5
:10487000006890F000403A490968FFF797FB00F0A4
:10488000ADFF02000221002000F025FF1248006861
:104890003449FFF737FB05D90F4800683249FFF765
:1048A000B3FA18D242F210720021002000F013FF78
:1048B00042F210720121002000F00DFF42F210724E
:1048C0000221002000F007FF42F2107203210020B5
:1048D00000F001FF72B670BD0806FF1F0406FF1F3F
:1048E0003004FF1F2C04FF1F0C06FF1F1006FF1FC4
:1048F0001406FF1F1806FF1F9A9999999999C93FA5
:10490000F805FF1F1C06FF1F9999B93F0006FF1FFE
:1049100000209D44A4703D0AD7A3C03FFC05FF1FA3
:104920002404FF1F2804FF1F3406FF1FD405FF1FA8
:104930002806FF1F5006FF1F2006FF1F2406FF1F2B
:1049400001B01A4600B01A4600B01AC600401C4614
:104950002C06FF1F00401CC63006FF1F3806FF1F35
:104960003C06FF1F01000442000030C12DE9F44F56
:1049700082B006000F0098460C9CDDF834900E9D26
:10498000E4B2002C07D1DFF8E002874203D3DFF85E
:10499000DC02B84222D2E4B2012C0BD1DFF8C8020B
:1049A000874207D3DFF8C802B84203D317F00300E9
:1049B000032813D1E4B2022C0BD1DFF8AC028742FA
:1049C00007D3DFF8B002B84203D317F00300002882
:1049D00004D03121DFF8A00200F012FFE4B2002C75
:1049E00002D15FF0010B0DE0E4B2012C02D15FF0C7
:1049F000020B07E0E4B2022C02D15FF0040B01E0ED
:104A00005FF0100BDFF87402006850F00200DFF86E
:104A10006C120860DFF86802006850F00200DFF8EE
:104A200060120860F6B27001DFF858124750F6B213
:104A3000700100F1804010F5104002990161F6B25A
:104A4000700100F1804010F5104000218180F6B225
:104A5000700100F1804010F510405FFA8BFBA0F868
:104A600014B0E4B2200210F4E060E4B214F00701E4
:104A70000843F6B2710101F1804111F51041C8807F
:104A8000F6B2700100F1804010F51040494649042B
:104A9000490CC182F6B2700100F1804010F510405F
:104AA0004946C905C90DC183DFF8DC01006830F053
:104AB0008000DFF8D4110860F6B2700100F1804088
:104AC00010F510405FFA8BFBC0F808B0F6B2700129
:104AD00000F1804010F510400021C160A80602D40A
:104AE000D9F1000000E00020F6B2710101F180412F
:104AF00011F510418861F6B2700100F1804010F5A7
:104B000010400A2181835FFA88F85FEA581031303B
:104B100050F08000F6B2DFF874117054DFF87001C5
:104B200000684FF400715FFA88F85FEA581291400C
:104B30000843DFF85C1108605FFA88F85FEA6810E4
:104B4000544951F820005FFA88F85FEA6811514A29
:104B500052F821104969012218F01F039A4091432D
:104B600041615FFA88F818F01F005FFA88F85FEA81
:104B70006811494A52F82110EDB215F00302EDB266
:104B8000AB09DBB253EA02424FF480731A4341F897
:104B900020205FFA88F8B8F1000F01D0012000E072
:104BA00000205FFA88F85FEA68113A4A52F821104B
:104BB0005FFA88F85FEA6812364B53F82220526990
:104BC000012313FA00F032EA00004861304800681F
:104BD0004FF40071BA0912F00702914008432C49C2
:104BE0000860E4B2002C03D0022C07D003D308E005
:104BF0000020387109E00020B88006E000207860CD
:104C000003E076211C4800F0FBFD3800103810F05E
:104C10003F008DF800009DF800005FFA8BFB5FEA13
:104C2000CB0151FA80F08DF801009DF8000082461A
:104C30009DF801005FFA8AFA82450ED25FFA8AFA7D
:104C4000B80910F00700144951F820004FF48171A1
:104C500040F82A101AF1010AEAE7F6B2300000F033
:104C600020F8BDE8F78F000010F00F4013F10F405F
:104C700012F10F4010F10F409C7A00004080044078
:104C80003C80044000900040008000400010024042
:104C9000388004400005FF1F1405FF1F3D490860D0
:104CA000704738B504005C2C02DB3B4801F051F83A
:104CB000202094FBF0F00500002D03D0022D27D01A
:104CC00013D337E00120202194FBF1F202FB1142C3
:104CD0009040324908600120202194FBF1F202FB50
:104CE000114290402E49086024E00120202194FBCD
:104CF000F1F202FB114290402A4908600120202174
:104D000094FBF1F202FB114290402749086011E048
:104D10000120202194FBF1F202FB11429040234933
:104D200008600120202194FBF1F202FB1142904027
:104D30001F49086031BD38B504005C2C02DB1D48FA
:104D400001F007F8202094FBF0F00500002D03D0BF
:104D5000022D15D00AD31CE00120202194FBF1F292
:104D600002FB114290401449086012E0012020210A
:104D700094FBF1F202FB114290401049086008E0F8
:104D80000120202194FBF1F202FB114290400C49DA
:104D9000086031BD08ED00E0647A000080E200E0C8
:104DA00000E100E084E200E004E100E088E200E0ED
:104DB00008E100E07C79000080E100E084E100E0AF
:104DC00088E100E090EA010F44BF81F00041FFF765
:104DD000F5B800BF421A3CBF801A89184FF0004C4A
:104DE000C0F3C752FF2A24D0C1F3C75313B3D21A5A
:104DF000D2F1190327DD4CEA01214CFA03F321EA31
:104E00000303D140C20D4CEA0020401834BF20EA11
:104E10000C004CEA5000D20553EA006373EB0C0C13
:104E200052EB1020420012F1807F38BF7047C00D56
:104E3000C0057047490212BF9A4200EB5120F8E7C3
:104E4000D2F11703D9D5704710B5FF2313EAD05418
:104E50001DBF13EAD1529C429A4239E0A41ADA07E4
:104E600080EA0103134042EA012142EA0020421A8B
:104E70003CBF641E01EB4202090AB2FBF1FE01FBDA
:104E80001E221202B2FBF1F001FB10226EF30F2082
:104E90001202B2FBF1FE4EEA00207F3406DDFE2C4A
:104EA00024DA53EA500050EBC45010BDD4F1020490
:104EB00001FB1E2240F08071192C1DDC21FA04F048
:104EC000C4F12004A140114371F10042584110BDCA
:104ED0009C421ABF03EAD1529A420FE080EA010EC7
:104EE0000EF00043400004D0490016D143F0FF40CB
:104EF00010BD490008BFD343180010BD9C4205D126
:104F0000D21AF7D001F00041484010BD4A0212BF4A
:104F10000846484000F0004010BD4AB90902B1FA05
:104F200081F2914044B1A418C00140F000409EE7D6
:104F3000C90141F0004152420002B0FA80F4A040A1
:104F4000141B94E738B504000D00E4B2002C05D121
:104F5000EDB2082D02D3EDB2132D0DD3E4B2012C26
:104F600005D1EDB2042D02D3EDB2122D04D32221CE
:104F7000DFF8D00200F044FCE4B2002C03D0012C96
:104F800000F08380FAE0DFF8C002006850F00060B3
:104F9000DFF8B4120860DFF8B402006830F0900067
:104FA000DFF8A8120860DFF8A40200210160EDB26A
:104FB0002800083801280CD9801E01281BD9801E22
:104FC00001282BD9801E01283AD9C01E012849D9B1
:104FD00059E0DFF87C02006850F48060DFF870125E
:104FE0000860EDB2A80000F1804010F59420002187
:104FF00040F8201C48E0DFF8580200684FF40071C8
:105000000843DFF84C120860EDB2A80000F18040C0
:1050100010F59220002140F80C1C35E0DFF830023A
:10502000006850F48060DFF828120860EDB2A80034
:1050300000F1804010F59420002140F8281C23E066
:10504000DFF80C02006850F40060DFF8041208601A
:10505000EDB2A80000F1804010F59620002140F844
:10506000381C11E0DFF8E801006850F40050DFF868
:10507000E0110860EDB2A80000F1804010F59A2020
:105080000021C16100E079E078E0DFF8C801006844
:1050900050F00060DFF8BC110860DFF8B001006874
:1050A00030F41040DFF8A4110860DFF8A0010021FF
:1050B0000160EDB22800001F03280BD9001F012852
:1050C0001AD9801E032829D9001F012838D9C01EEB
:1050D00046D052E0DFF87801006850F40050DFF865
:1050E00070110860EDB2A80000F1804010F59A2020
:1050F000002140F8101C40E0DFF85401006850F433
:105100008060DFF84C110860EDB2A80000F180402B
:1051100010F59420002140F8201C2EE0DFF830012B
:10512000006850F48060DFF828110860EDB2A80034
:1051300000F1804010F59420002140F8181C1CE07C
:105140004348006850F4806041490860EDB2A8000F
:1051500000F1804010F59420002140F8181C0CE06C
:105160003B4800684FF40071084339490860EDB2CC
:105170003948002140F82510FFE7FFE731BDF8B5B9
:1051800004000D0016000027E4B2002C05D1EDB29A
:10519000082D02D3EDB2132D0CD3E4B2012C05D1AE
:1051A000EDB2042D02D3EDB2122D03D38721254891
:1051B00000F026FB3200D2B22900C9B22000C0B2F2
:1051C00000F01CF8E4B2254850F8240000680006FE
:1051D000F8D5E4B2214850F8240000690700E4B291
:1051E0001E4850F82400006830F08000E4B21B49EB
:1051F00051F824100860380080B2F2BD70B5040088
:105200000D00160015F01F0050F040001449087200
:10521000B00010F00C0050F0500011490870104818
:10522000042141700E4841F2342141800C4845F27E
:10523000786181800A49E4B2084850F8240000F0FF
:1052400011F870BD2C7A00003C80044018800440A6
:105250003880044030800440009004401C04FF1F4C
:10526000E805FF1F0A7882604A78C2604A88826136
:105270008A88C2618A790262CA794262CA68026512
:105280000A7A02604A7A426070470000DFF8CC0474
:105290004FF4C0610160DFF8C8044FF4C0610160E1
:1052A000DFF8C004006850F00300DFF8B8140860AD
:1052B000DFF8B404006850F00300DFF8AC140860B5
:1052C000DFF8A804006850F00070DFF8A014086050
:1052D000DFF89C04006850F00400DFF894140860C4
:1052E000DFF89004006850F00800DFF888140860C8
:1052F000DFF8840400210160DFF880044FF6FF71BD
:105300000160DFF87004006850F00100DFF86414F9
:105310000860DFF85C04006850F00100DFF850140A
:105320000860DFF85C04002101607047DFF8540476
:105330004FF4C0610160DFF850044FF4C0610160B8
:10534000DFF84804006850F08070DFF8401408600F
:10535000DFF83C04006850F00400DFF83414086003
:10536000DFF83004006850F00800DFF82814086007
:10537000DFF8240400210160DFF820044FF6FF71FC
:105380000160DFF81004006850F00100DFF8041439
:105390000860DFF8FC03006850F00100DFF8F0134C
:1053A0000860DFF8FC030021016070472DE9F84F29
:1053B00004000D0016001F00DFF8E80300684FF43A
:1053C0007A7148435FEA5008E4B2002C0DD0E4B291
:1053D000012C02D0E4B2022C02D1EDB2022D04D392
:1053E0005621DFF8C40300F00BFA5FEA5800B04220
:1053F00004D25721DFF8B00300F002FA5FEA184048
:10540000B0FBF6F08146002082461FFA89F959FA6E
:105410000AF0012802DB1AF1010AF6E74FF47A706C
:10542000864201D21AF1010A5FFA8AFABAF1080F2C
:1054300001D30720824638FA0AF0B0FBF6F0814625
:105440001FFA89F919F1010000FB07F042F210710F
:10545000B0FBF1F08346E4B2002C05D0022C00F042
:10546000B880C0F08A80E0E0DFF80003006850F008
:105470008070DFF8F8120860EDB2002D0BD0022D1D
:1054800025D016D3042D3ED02FD3062D57D048D388
:10549000072D62D06FE0DFF81403006850F400605D
:1054A000DFF808130860DFF808034FF4806101603B
:1054B00062E0DFF8F802006850F40060DFF8EC12F8
:1054C0000860DFF8F0024FF48061016054E0DFF81B
:1054D000DC02006850F40060DFF8D0120860DFF8EA
:1054E000D8024FF48061016046E0DFF8C002006836
:1054F00050F40060DFF8B4120860DFF8C0024FF427
:105500008061016038E0DFF8A402006850F4805048
:10551000DFF898120860DFF8A8024FF4806101609C
:105520002AE0DFF88802006850F48050DFF87C122F
:105530000860DFF890024FF4806101601CE0DFF842
:105540006C02006850F48050DFF860120860DFF8E9
:1055500078024FF4806101600EE0DFF850020068CD
:1055600050F48050DFF844120860DFF860024FF416
:105570008061016000E0ACE057E0DFF8F001006816
:1055800050F00070DFF8E4110860EDB2002D02D099
:10559000012D0ED01BE0DFF81402006850F480608B
:1055A000DFF808120860DFF8B4014FF440710160C1
:1055B0000EE0DFF8F801006850F48060DFF8EC11CD
:1055C0000860DFF89C014FF44071016000E080E06A
:1055D0002BE0DFF8B801006850F08070DFF8AC1104
:1055E0000860EDB2002D02D0012D0ED01BE0DFF8D7
:1055F000BC01006850F48060DFF8B0110860DFF88B
:10560000D0014FF4407101600EE0DFF8A0010068A6
:1056100050F48060DFF894110860DFF8B8014FF4AF
:105620004071016000E054E0FFE7EDB2E4B2DFF862
:10563000A80150F8240010EBC500EDB2E4B2DFF889
:10564000981151F8241011EBC501C96831F004011B
:10565000C160EDB2E4B2DFF8800150F8240010EB35
:10566000C5002821C160E4B2DFF86C0150F82400C5
:105670005FFA8AFA1AF0070151F028010160E4B2DA
:10568000DFF8540150F824000021C164E4B2DFF8CF
:10569000480150F824001FFA89F9C0F80890E4B2D4
:1056A000DFF8340150F824000021C164EDB2E4B207
:1056B000DFF8240150F8240010EBC5001FFA8BFB23
:1056C000C0F810B0E4B2DFF8100150F82400002157
:1056D0004160BDE8F18F2DE9F04104000D00160096
:1056E0005FF00008E4B2002C0ED0E4B2012C02D02E
:1056F000E4B2022C02D1EDB2022D05D34FF4BF71FA
:10570000DFF8A40000F07CF842F21170864205D365
:1057100040F27F11DFF8900000F072F8B8F1000F4E
:1057200007D1E4B2DFF8B00050F82400806880466A
:10573000F4E718F1010000FB06F042F21071B0FB33
:10574000F1F00700EDB2E4B2DFF88C0050F824006D
:1057500010EBC5000761BDE8F081000000A0044027
:1057600004A0044020900440249004403C80044065
:1057700054900340809003404C90034008900340B5
:105780000490034048A004404CA0044030800440F2
:1057900054800B4080800B404C800B4008800B40B5
:1057A00004800B401475FF1FF4790000388004401A
:1057B00004B0044008B004400CB0044010B00440F1
:1057C00010C0044014C0044018C004401CC0044071
:1057D000489004404C9004401004FF1F40000DD23C
:1057E000010E7F390AD4D1F11F0104D4C00140F069
:1057F0000040C84070477FF00000704700207047AD
:1058000038B504000D0000F0B9FA2A002100034861
:1058100000F09FFA00F0DBFAF7E700BFA87800007D
:1058200070B504000D0016003068012802D002286F
:1058300005D00AE02000C0B27168884705E0B06872
:105840000470B068401CB060FFE72868401C286006
:1058500070BD2DE9F04704005FF0000A5046A146F4
:105860005FF0000A89F800A019F10109002A1FD091
:10587000D1F800A05546002D05D15FF0300A89F817
:1058800000A0401C38E0002D36D095FBF3FA5646B8
:1058900003FB165A5746002F02D5FF43313700E06D
:1058A0003037350089F8007019F10109401CEAE72A
:1058B000D1F800A0D446BCF1000F05D15FF0300A4A
:1058C00089F800A0401C17E0BCF1000F14D0BCFB0D
:1058D000F3FAD64603FB1ECAD046B8F10A0F02D22D
:1058E00018F1300801E018F13708F44689F8008013
:1058F00019F10109401CE7E7BDE8F0872DE9F04107
:1059000004000D0016001F00A046A84507DA3A0063
:1059100031003020FFF784FF18F10108F5E7BDE8FA
:10592000F0812DE9F04104000D0016001F00A04693
:10593000A84507DA3A0031002020FFF771FF18F17F
:105940000108F5E7BDE8F0812DE9F24F92B00400BF
:10595000150000200090129883469BF800000590E7
:10596000002800F0F2810598252813D005980A2810
:1059700005D0220000A90598FFF752FF09E0220098
:1059800000A90D20FFF74CFF220000A90A20FFF715
:1059900047FFD7E1002081460020039003980028AC
:1059A00022D11BF1010B9BF8000020280ED02328E8
:1059B00012D02B2807D02D2802D0302809D00EE095
:1059C00059F00109EAE759F00209E7E759F004093B
:1059D000E4E759F00809E1E759F01009DEE7BBF107
:1059E000010B01200390D9E700208246002003909C
:1059F0000398002813D11BF1010B9BF800000590C0
:105A00003038092806D80A20059900FB0A10B0F1A1
:105A1000300AEDE7BBF1010B01200390E8E71BF131
:105A2000010B9BF800002E2811D100200390039851
:105A300000280ED11BF1010B9BF80000303809281B
:105A400000D8F4E7BBF1010B01200390EFE7BBF1B5
:105A5000010B1BF1010B9BF800004C2806D06828B5
:105A600002D06C2801D002E003E002E001E0BBF1CB
:105A7000010B1BF1010B9BF800000590582875D015
:105A8000622800F0D580632800F01D81642813D0BF
:105A9000692811D06E2800F049816F2800F0BD8080
:105AA000702800F0D080732800F01681752800F06F
:105AB000D58078285AD040E1286806902D1D0A2309
:105AC000012206A909A8FFF7C4FE070009A8381893
:105AD00006000698002803D52D2002907F1C0FE0B9
:105AE0004846800703D52B2002907F1C08E04846DB
:105AF000400703D5202002907F1C01E00020029087
:105B0000002004904846000711D50298002804D0D0
:105B1000220000A90298FFF783FE012004902300D1
:105B200000AA51463800FFF7E9FE574612E0484602
:105B3000C0070FD4230000AA51463800FFF7F1FE3A
:105B40000298002804D0220000A90298FFF768FEFE
:105B5000012004900498002807D10298002804D05E
:105B6000220000A90298FFF75BFE98E028680190E8
:105B70002D1D1023002201A909A8FFF76AFE0700C6
:105B800009A838180600002004904846000716D5DA
:105B90004846C0060BD5220000A93020FFF740FE82
:105BA000220000A97820FFF73BFE0120049023008B
:105BB00000AA51463800FFF7A1FE57461BE04846B1
:105BC000C00718D44846C00600D5BF1C230000AA51
:105BD00051463800FFF7A5FE4846C0060BD5220007
:105BE00000A93020FFF71CFE220000A97820FFF753
:105BF00017FE012004904846C0060DD504980028E1
:105C00000AD1220000A93020FFF70AFE220000A9D5
:105C10007820FFF705FEBF1C41E0286801902D1D8C
:105C20000823002201A909A8FFF713FE07001FE0BF
:105C3000286801902D1D0223002201A909A8FFF761
:105C400008FE070014E0286801902D1D1023002293
:105C500001A909A8FFF7FDFD070009E028680190E8
:105C60002D1D0A23002201A909A8FFF7F2FD070054
:105C700009A8381806004846000707D5230000AADF
:105C800051463800FFF73AFE574608E04846C0073D
:105C900005D4230000AA51463800FFF742FE3078B1
:105CA000002806D0220000A93078FFF7B9FD761E43
:105CB000F5E74846C00705D5230000AA514638003D
:105CC000FFF72FFE3EE0287807902D1D220000A947
:105CD0000798FFF7A5FD35E0286880462D1DB8F12F
:105CE000000F22D0404600F0A3F807004846C00746
